:100000000C9457000C9469000C9469000C946900DE
:100010000C9469000C9469000C9469000C946900BC
:100020000C9469000C9469000C9469000C946900AC
:100030000C9469000C9469000C9469000C9469009C
:100040000C9412010C9469000C9469000C946900E2
:100050000C9469000C9469000C9469000C9469007C
:100060000C9469000C946900000000002500280031
:100070002B00040404040404040402020202020229
:10008000030303030303010204081020408001025C
:1000900004081020010204081020000000080002DB
:1000A000010000030407000000000000000011240C
:1000B0001FBECFEFD8E0DEBFCDBF21E0A0E0B1E0B2
:1000C00001C01D92A930B207E1F70E945C010C94B7
:1000D0000B020C94000090E0FC01E656FF4F2491C7
:1000E000FC01EA57FF4F3491FC01EE58FF4FE491B9
:1000F000EE23C9F0222339F0233001F1A8F4213096
:1001000019F1223029F1F0E0EE0FFF1FE859FF4FFF
:10011000A591B4918FB7F894EC91611126C03095F8
:100120003E233C938FBF08952730A9F02830C9F0B3
:10013000243049F7809180008F7D03C0809180003A
:100140008F7780938000DFCF84B58F7784BDDBCF3E
:1001500084B58F7DFBCF8091B0008F778093B00006
:10016000D2CF8091B0008F7DF9CF3E2BDACF3FB751
:10017000F8948091050190910601A0910701B0913A
:10018000080126B5A89B05C02F3F19F00196A11DB7
:10019000B11D3FBFBA2FA92F982F8827BC01CD01D1
:1001A000620F711D811D911D42E0660F771F881F30
:1001B000991F4A95D1F708958F929F92AF92BF925F
:1001C000CF92DF92EF92FF920E94B7004B015C0149
:1001D00084EFC82EDD24D394E12CF12C0E94B700CB
:1001E000681979098A099B09683E73408105910560
:1001F000A8F321E0C21AD108E108F10888EE880EC0
:1002000083E0981EA11CB11CC114D104E104F104C7
:1002100029F7FF90EF90DF90CF90BF90AF909F9025
:100220008F9008951F920F920FB60F9211242F9363
:100230003F938F939F93AF93BF93809101019091D0
:100240000201A0910301B09104013091000123E06B
:10025000230F2D3758F50196A11DB11D20930001E4
:100260008093010190930201A0930301B0930401D4
:100270008091050190910601A0910701B0910801BC
:100280000196A11DB11D8093050190930601A093D5
:100290000701B0930801BF91AF919F918F913F915A
:1002A0002F910F900FBE0F901F90189526E8230FE7
:1002B0000296A11DB11DD2CF789484B5826084BD11
:1002C00084B5816084BD85B5826085BD85B581605A
:1002D00085BD80916E00816080936E0010928100D8
:1002E0008091810082608093810080918100816093
:1002F0008093810080918000816080938000809154
:10030000B10084608093B1008091B00081608093DF
:10031000B00080917A00846080937A0080917A00A6
:10032000826080937A0080917A00816080937A0065
:1003300080917A00806880937A001092C100C0E0BA
:10034000D0E061E082E00E946B0061E083E00E9407
:100350006B0061E084E00E946B0061E085E00E9438
:100360006B0061E086E00E946B0061E087E00E9424
:100370006B0061E088E00E946B0061E089E00E9410
:100380006B0061E08AE00E946B0061E08BE00E94FC
:100390006B0061E08CE00E946B0061E08DE00E94E8
:1003A0006B000E94DC0060E082E00E946B0060E075
:1003B00083E00E946B0060E084E00E946B0060E0DC
:1003C00085E00E946B0060E086E00E946B0060E0C8
:1003D00087E00E946B0060E088E00E946B0060E0B4
:1003E00089E00E946B0060E08AE00E946B0060E0A0
:1003F0008BE00E946B0060E08CE00E946B0060E08C
:100400008DE00E946B000E94DC00209709F499CFD8
:0A0410000E94000096CFF894FFCF81
:00000001FF
